:020000020000FC
:040000000C94460016
:10008C0000E10EBF0FEF0DBF0FEF0ABB04BB0BBBA4
:10009C0000EC01BB0FEF02BB4FE75EEF60EC18E02A
:1000AC003AD005C0F9A4B0999282F8809000819959
:1000BC0009C042D0819906C01395193008F018E098
:1000CC002AD031D0829909C037D0829906C01A95AE
:1000DC001F3F09F410E01FD029D08099E8CF2CD015
:1000EC008099E5CF26D001D0E2CF212F23951F9305
:1000FC00122F1A9510D01F914BBB8599FECF5BBB6D
:10010C0026D00FEF0BBB23D02A9589F765BB2FD0D8
:10011C0018E001D00895E0EBF0E0E10F08F4F3955E
:10012C00049105BB0895819BFECF0895829BFECF61
:10013C000895809BFECF08952F933F933AE22FEFC3
:10014C002A95F1F73A95D9F73F912F9108952F936E
:10015C003F934F9342E53BE220E02A95F1F73A9525
:10016C00D9F74A95C1F74F913F912F9108952F934D
:10017C003F934F9342E53AEA20E02A95F1F73A95FE
:0E018C00D9F74A95C1F74F913F912F910895F1
:00000001FF
