S01800004763634170706C69636174696F6E33342E7372656324
S113000092C00000ADC00000ABC00000A9C0000059
S1130010A7C00000A5C00000A3C00000A1C000004C
S11300209FC000009DC000009BC0000099C000005C
S113003097C0000095C0000093C00000DAC1000022
S11300408FC000008DC000008BC0000089C000007C
S113005087C0000085C0000083C0000081C000008C
S11300607FC000007DC000007BC0000079C000009C
S113007077C0000075C00000B5C2000071C0000068
S11300806FC000006DC000006BC000006F038903E7
S113009092039B03A203A903B703D6037203DF03EE
S11300A0720372037203E803F103720372037203AF
S11300B07203720372037203720372037203720394
S11300C072037203720372030F04720372037203E6
S11300D0720372037203FA037203720372037203EC
S11300E072037203060472037203720372037203CF
S11300F07203720372037203720372037203720354
S113010072037203720372030F04720372037203A5
S1130110720372037203FA037203720372037203AB
S113012072037203060411241FBECFEFD0E1DEBFB9
S1130130CDBF11E0A0E0B1E0E4ECFEE000E00BBFD5
S113014002C007900D92AA31B107D9F721E0AAE1C4
S1130150B1E001C01D92A934B207E1F7BED2B0C626
S11301604FCF209126002064209326002091260062
S113017026FDFCCF8091250008958FEF84BB85BBBD
S113018080EC8ABB80E88BBB80EE87BB8EE388BBA8
S11301908DE481BF8FE083BF87B7826087BF83E62A
S11301A085BD13BC8FEC809399001092980081E276
S11301B087B987E886B982E080939B0088E98093B9
S11301C09A008EE080939D007894089590911A018E
S11301D09F5F90931A01943010F010921A0190913D
S11301E01A019330D9F41BBA80912801833711F096
S11301F0833519F482E985BB0895843611F084347B
S113020019F481EA85BB0895813611F0813419F41B
S113021088E885BB08958FEF85BB089581111AC0C6
S113022080911F01813091F480911D01811107C0DB
S113023080EC8BBB85BB81E080931D01089580E831
S11302408BBB8FEB85BB10921D01089580EC8BBB9B
S113025085BB0895843609F04AC080911F0181301E
S1130260E9F480911B01811108C080EC8BBB80E90B
S113027085BB81E080931B010895813041F480E8BF
S11302808BBB80E985BB82E080931B01089580E4E9
S11302908BBB8FEB85BB10921B01089580911B01D2
S11302A0811108C080EC8BBB80E985BB81E0809321
S11302B01B01089580E88BBB80E985BB10921B016C
S11302C00895F901E65DFE4F9DEC899F912D11245F
S11302D0969596959695592F550F452F440F440F93
S11302E0450F841B8083892F2F5F3F4F02C020E07E
S11302F030E08111E6CF2130310529F580911F01CD
S11303008130C1F480911C0181110DC080EC8BBB44
S1130310E0912A01F0E0E05FFE4F808185BB81E03F
S113032080931C0110C080E88BBB8FEB85BB1092BF
S11303301C0109C080EC8BBBE0912A01F0E0E05F76
S1130340FE4F808185BB22303105D9F580911F0194
S1130350813039F580911B0181110DC080EC8BBB7C
S1130360E0912A01F0E0E05FFE4F808185BB81E0EF
S113037080931B0126C0813069F480E88BBBE09137
S11303802B01F0E0E05FFE4F808185BB82E080932B
S11303901B0117C080E48BBB8FEB85BB10921B0144
S11303A010C080911B0181110FC080EC8BBBE091C8
S11303B02A01F0E0E05FFE4F808185BB81E08093FD
S11303C01B0180E090E011C080E88BBBE0912B0121
S11303D0F0E0E05FFE4F808185BB10921B01F1CFFE
S11303E0FC01E65DFE4F1082019683309105C4F353
S11303F008951F920F920FB60F9211240BB60F920D
S11304002F933F934F935F936F937F938F939F9318
S1130410AF93BF93EF93FF9380912101D7DE809137
S11304202401813029F4809122018F5F809322017D
S113043080912201823339F4109224011092220116
S113044081E080932301FF91EF91BF91AF919F9140
S11304508F917F916F915F914F913F912F910F9069
S11304600BBE0F900FBE0F901F901895AC0120E0AB
S113047007C090919B0095FFFCCF30939C002F5FA9
S1130480FA01E20FF11D30813111F3CF08952FEFFE
S1130490829FC001112464E670E0F8D1862F08958C
S11304A080E090E01DC029B330E0082E02C03595ED
S11304B027950A94E2F720FD12C0EFE1FEE431979C
S11304C0F1F700C0000029B330E0082E02C03595D2
S11304D027950A94E2F720FD02C08F5F08950196E4
S11304E08630910504F380E00895809121018B5FAB
S11304F080932101843618F084E680932101809151
S11305002101C5DF83BD089580912101853018F450
S11305101092210103C08550809321018091210113
S1130520B6DF83BD089589E180932101B0DF83BDE7
S1130530089582E380932101AADF83BD0895109278
S11305402301C59B07C088B38F7D88BB88B38064B3
S113055088BB06C088B38F7B88BB88B3806288BBA6
S113056081E090911F01911180E080931F0180919F
S1130570200183BD08958091270180FF2BC08091C5
S1130580270181FF06C0E7E2F1E080818D7F80834F
S113059021C0809125018337A1F080912501833505
S11305A081F080912501843661F0809125018434A5
S11305B041F080912501813621F08091250181341B
S11305C029F4809125018093280104C0809125019C
S11305D080932901E7E2F1E080818E7F808310928D
S11305E0250108951F920F920FB60F9211240BB696
S11305F00F922F933F934F935F936F937F938F93B8
S11306009F93AF93BF93EF93FF9380919B00E5E299
S1130610F1E0818381818C7131F0E7E2F1E0808146
S11306208260808309C080919C0080932501E7E269
S1130630F1E08081816080839EDFFF91EF91BF9123
S1130640AF919F918F917F916F915F914F913F9166
S11306502F910F900BBE0F900FBE0F901F90189507
S1130660CF93DF93C0911E01D0E07BDDCF5BDE4FE3
S1130670888380911E018F5F80931E018430D9F49A
S113068008C0FC01EF5BFE4F4081240F311D019631
S113069004C080E090E020E030E0843091058CF3E9
S11306A0C90199230CF4039695958795959587959B
S11306B083BD10921E0123B584E6289F9001112466
S11306C0A1E8B0E8FFD0880F892F881F990B919576
S11306D080932101DF91CF9108954FDD03C0D0E0D5
S11306E001C0D0E080912801833719F0833509F0E7
S11306F046C0D6DEC82F80912301813009F41FDF64
S11307008C2F90E08730910568F7FC01EA5BFF4F7E
S1130710D0C080912401813029F3D13019F3E5DE72
S1130720D1E0E0CF809124018130E1F2D230D1F2E6
S1130730EBDED2E0D7CF80912401813099F2F3DE51
S1130740D3E0D0CF80912401813061F2F2DED4E095
S1130750C9CFD53009F4C6CF81E08093240183B595
S11307608093200188B3806688BBD5E0BBCF80919D
S11307702401813009F4B6CF13BCD6E0B3CF84365C
S113078019F0843409F064C080912301813009F4A4
S1130790D6DEE09129018E2F90E0FC01BB97E63470
S11307A0F10508F09FCFE35BFF4F83C080912401E4
S11307B0813009F497CF99DE1092290193CF80916B
S11307C02401813009F48ECF9FDE109229018ACF53
S11307D080912401813009F485CFA5DE109229018E
S11307E081CF80912401813009F47CCFA2DE109264
S11307F0290178CF81E08093240183B5809320017F
S113080088B3806688BB109229016CCF8091240143
S1130810813009F467CF13BC1092290163CF809112
S113082021011F928F9380E091E09F938F938DE23B
S113083091E09F938F9369D08DE291E017DE10923F
S113084029010F900F900F900F900F900F904ACFA7
S1130850813619F0813409F045CF02DF8FE19EE43F
S11308600197F1F700C0000080912301813009F461
S113087066DECC9936CF81E08093240183B58093E2
S1130880200188B3806688BBD5E02CCF97FB072E68
S113089016F4009406D077FD08D023D007FC05D0C9
S11308A03EF4909581959F4F0895709561957F4F83
S11308B00895EE0FFF1F0024001C0BBE0790F69155
S11308C0E02D0994A29FB001B39FC001A39F700DB6
S11308D0811D1124911DB29F700D811D1124911D44
S11308E00895AA1BBB1B51E107C0AA1FBB1FA61773
S11308F0B70710F0A61BB70B881F991F5A95A9F7C5
S113090080959095BC01CD0108950F931F93CF93CB
S1130910DF93CDB7DEB72E970FB6F894DEBF0FBEC8
S1130920CDBF0D891E8986E08C831A8309838FEFDE
S11309309FE79E838D83AE01475E5F4F6F89788DFD
S1130940CE01019610D0EF81F885E00FF11F1082DF
S11309502E960FB6F894DEBF0FBECDBFDF91CF91B8
S11309601F910F9108952F923F924F925F926F9231
S11309707F928F929F92AF92BF92CF92DF92EF922B
S1130980FF920F931F93CF93DF93CDB7DEB72B97CF
S11309900FB6F894DEBF0FBECDBF6C017B018A0198
S11309A0FC0117821682838181FFBFC1CE010196AB
S11309B03C01F6019381F70193FD859193FF8191A9
S11309C07F01882309F4ADC1853239F493FD859103
S11309D093FF81917F01853221F4B60190E0D6D155
S11309E0E8CF912C212C312CFFE1F315D8F08B3278
S11309F079F038F4803279F08332A1F4232D206128
S1130A001DC08D3261F0803369F4232D216016C03E
S1130A10832D8260382EE32DE4603E2E2AC0F32D10
S1130A20F8601DC037FC2DC020ED280F2A3040F09F
S1130A308E32B9F436FC75C1232D2064322E19C0D0
S1130A4036FE06C08AE0989E200D1124922E11C015
S1130A50EAE02E9E200D1124222EF32DF0623F2E6B
S1130A6008C08C3621F4832D8068382E02C0883665
S1130A7041F4F70193FD859193FF81917F018111E9
S1130A80B3CF982F9F7D9554933028F40C5F1F4F5C
S1130A909FE399830DC0833631F0833771F083353A
S1130AA009F055C020C0F801808189830E5F1F4F73
S1130AB088248394912C530112C02801F2E04F0E34
S1130AC0511CF801A080B18036FE03C0692D70E08E
S1130AD002C06FEF7FEFC5014ED14C018201F32DAF
S1130AE0FF773F2E15C0280122E0420E511CF80169
S1130AF0A080B18036FE03C0692D70E002C06FEFA4
S1130B007FEFC5012DD14C01F32DF0683F2E8201FA
S1130B1033FC19C0822D90E088169906A0F4B60122
S1130B2080E290E033D12A94F5CFF50137FC85912A
S1130B3037FE81915F01B60190E028D121102A94FB
S1130B4021E0821A91088114910479F7E1C0843676
S1130B5011F0893639F5F80137FE07C060817181DB
S1130B60828193810C5F1F4F08C060817181072EC1
S1130B70000C880B990B0E5F1F4FF32DFF763F2E51
S1130B8097FF09C090958095709561957F4F8F4F21
S1130B909F4FF0683F2E2AE030E0A30133D1882E26
S1130BA0861844C0853731F4232D2F7EB22E2AE0D7
S1130BB030E025C0932D997FB92E8F36C1F018F4FB
S1130BC0883579F0AEC0803719F0883721F0A9C094
S1130BD0E92FE061BE2EB4FE0DC0FB2DF460BF2EE4
S1130BE009C034FE0AC0292F2660B22E06C028E0B0
S1130BF030E005C020E130E002C020E132E0F8013D
S1130C00B7FE07C060817181828193810C5F1F4FA1
S1130C1006C06081718180E090E00E5F1F4FA301E8
S1130C20F1D0882E8618FB2DFF773F2E36FE0DC09F
S1130C30232D2E7FA22E891458F434FE0BC032FCCF
S1130C4009C0832D8E7EA82E05C0B82CA32C03C00A
S1130C50B82C01C0B92CA4FE0FC0FE01E80DF11D93
S1130C608081803321F49A2D997EA92E09C0A2FE99
S1130C7006C0B394B39404C08A2D867809F0B39463
S1130C80A3FC10C0A0FE06C0B21480F4280C922C61
S1130C909B180DC0B21458F4B60180E290E076D0EF
S1130CA0B394F8CFB21418F42B1802C0982C212C4A
S1130CB0A4FE0FC0B60180E390E068D0A2FE16C087
S1130CC0A1FC03C088E790E002C088E590E0B6018B
S1130CD00CC08A2D867851F0A1FE02C08BE201C0BF
S1130CE080E2A7FC8DE2B60190E050D0891430F484
S1130CF0B60180E390E04AD09A94F8CF8A94F30145
S1130D00E80DF11D8081B60190E040D08110F6CF4E
S1130D10222009F44ECEB60180E290E037D02A9426
S1130D20F7CFF6018681978102C08FEF9FEF2B9654
S1130D300FB6F894DEBF0FBECDBFDF91CF911F91E8
S1130D400F91FF90EF90DF90CF90BF90AF909F9066
S1130D508F907F906F905F904F903F902F90089569
S1130D60FC010590615070400110D8F78095909572
S1130D708E0F9F1F0895FC01615070400190011077
S1130D80D8F7809590958E0F9F1F08950F931F930A
S1130D90CF93DF93FB01238121FD03C08FEF9FEFEE
S1130DA02CC022FF16C04681578124813581421709
S1130DB0530744F4A081B1819D012F5F3F4F3183DC
S1130DC020838C93268137812F5F3F4F378326837F
S1130DD014C08B01EC01FB010084F185E02D099521
S1130DE0892BE1F6D80116968D919C91179701965F
S1130DF017969C938E931697CE01DF91CF911F91F6
S1130E000F910895FA01AA27283051F1203181F178
S1130E10E8946F936E7F6E5F7F4F8F4F9F4FAF4FFE
S1130E20B1E03ED0B4E03CD0670F781F891F9A1F11
S1130E30A11D680F791F8A1F911DA11D6A0F711DC5
S1130E40811D911DA11D20D009F468943F912AE0D1
S1130E50269F11243019305D3193DEF6CF010895B9
S1130E60462F4770405D4193B3E00FD0C9F7F6CFEA
S1130E70462F4F70405D4A3318F0495D31FD4052B2
S1130E80419302D0A9F7EACFB4E0A6959795879548
S1130E9077956795BA95C9F7009761057105089527
S1130EA09B01AC010A2E06945795479537952795D3
S1130EB0BA95C9F7620F731F841F951FA01D08956B
S1070EC0F894FFCFD0
S1130EC444757479203A202564202525200D0A00D0
S10D0ED4C0F9A4B0999282F880904E
S9030000FC
