:020000020000FC
:020000006AC0D4
:02003C0098C06A
:10008C00C0F9A4B0999282F88090004080C030EC06
:10009C0031BB3FEF34BB3FEF35BB39EF31BF3CE0F9
:1000AC0033BF30E0532F932F032F632F832FD32F86
:1000BC00F0E0ECE83591C32ED32EE32EF32E4AEF6D
:1000CC00CAE032E037BF789408953FEF3DBF30E18E
:1000DC003EBF0E944D008099FECF81E0813029F017
:1000EC00823039F1833061F1F6CF603031F060E06D
:1000FC0053955A3099F750E0F1CF8399EFCF7ED0DA
:10010C008399ECCF72D0903031F0913031F0923045
:10011C0031F0F12E05C0C12E03C0D12E01C0E12E4D
:10012C00939550E04AEF943009F482E0839BFECF24
:10013C00D5CFD03099F2D0E0CA9581F683E0CECFFE
:10014C0030E0532F932F032F632F832FD32F4AEF9E
:10015C00CAE0F0E0ECE83591C32ED32EE32EF32E5B
:10016C00BACF6FB66F923F937F931F93EF93FF932A
:10017C004A9549F44AEF813019F0823019F003C0E6
:10018C0061E001C0D1E0F0E0E6E9E00F149172B358
:10019C003FE37323712B72BB091731F4F0E0ECE8E9
:1001AC00E50F149115BB15C0823019F47C2F7170BA
:1001BC0071F4003031F0013031F0023031F0F5BA29
:1001CC0008C0C5BA06C0D5BA04C0E5BA02C03FEF34
:1001DC0035BB0395043009F400E0FF91EF911F91BA
:1001EC007F913F916F906FBE1895EF93FF93F0E066
:1001FC00ECE8E50F1491FF91EF910895BF93AF9345
:10020C002F93B4E6AAE029E62A95F1F7AA95D9F737
:0C021C00BA95C1F72F91AF91BF910895E2
:00000001FF
