:100000004CC0000067C0000065C0000063C0000075
:1000100061C000005FC000005DC000005BC0000068
:1000200059C0000057C0000055C0000053C0000078
:1000300051C000004FC000004DC000004EC1000084
:1000400049C0000047C0000045C0000043C0000098
:1000500041C000003FC000003DC000003BC00000A8
:1000600039C0000037C0000035C0000033C00000B8
:1000700031C000002FC000002DC000002BC00000C8
:1000800029C0000027C0000025C00000240235025E
:100090003E0247024E025502620211241FBECFEFFC
:1000A000D0E1DEBFCDBF11E0A0E0B1E0EEE4F5E0CD
:1000B00000E00BBF02C007900D92AC30B107D9F73A
:1000C00021E0ACE0B1E001C01D92A731B207E1F739
:1000D000B8D13BC295CF8FEF84BB85BB90EC9ABB68
:1000E0008BBB80EE87BB8EE388BB8DE481BF8FE046
:1000F00083BF87B7826087BF83E685BD80E883BD05
:100100007894089581111AC080910F01813091F483
:1001100080910E01811107C080EC8BBB85BB81E013
:1001200080930E01089580E88BBB8FEB85BB109206
:100130000E01089580EC8BBB85BB0895843609F0D1
:100140004AC080910F018130E9F480910C01811146
:1001500008C080EC8BBB80E985BB81E080930C01FB
:100160000895813041F480E88BBB80E985BB82E053
:1001700080930C01089580E48BBB8FEB85BB1092BC
:100180000C01089580910C01811108C080EC8BBB9B
:1001900080E985BB81E080930C01089580E88BBBEA
:1001A00080E985BB10920C010895F901EC5EFE4FC9
:1001B0009DEC899F912D1124969596959695592F92
:1001C000550F452F440F440F450F841B8083892F03
:1001D0002F5F3F4F02C020E030E08111E6CF213099
:1001E000310529F580910F018130C1F480910D0115
:1001F00081110DC080EC8BBBE0911401F0E0EF5F4A
:10020000FE4F808185BB81E080930D0110C080E8A6
:100210008BBB8FEB85BB10920D0109C080EC8BBBB3
:10022000E0911401F0E0EF5FFE4F808185BB22304A
:100230003105D9F580910F01813039F580910C019C
:1002400081110DC080EC8BBBE0911401F0E0EF5FF9
:10025000FE4F808185BB81E080930C0126C08130F8
:1002600069F480E88BBBE0911501F0E0EF5FFE4F91
:10027000808185BB82E080930C0117C080E48BBB3A
:100280008FEB85BB10920C0110C080910C01811185
:100290000FC080EC8BBBE0911401F0E0EF5FFE4FEC
:1002A000808185BB81E080930C0180E090E011C0EB
:1002B00080E88BBBE0911501F0E0EF5FFE4F80819D
:1002C00085BB10920C01F1CFFC01EC5EFE4F108259
:1002D000019683309105C4F308951F920F920FB6D3
:1002E0000F9211240BB60F922F933F934F935F936E
:1002F0006F937F938F939F93AF93BF93EF93FF93EE
:1003000080910001FFDE80911301813029F48091FA
:1003100011018F5F8093110180911101823339F4B3
:10032000109213011092110181E080931201FF914C
:10033000EF91BF91AF919F918F917F916F915F915D
:100340004F913F912F910F900BBE0F900FBE0F90CA
:100350001F901895282F30E0AFEFB0E0E7D024E6EB
:1003600030E040E050E0B7D0822F089580E090E088
:100370001DC029B330E0082E02C0359527950A9498
:10038000E2F720FD12C0EFE1FEE43197F1F700C083
:10039000000029B330E0082E02C0359527950A9455
:1003A000E2F720FD02C08F5F089501968630910527
:1003B00004F380E00895809100018B5F8093000139
:1003C000843618F084E68093000180910001C2DF3A
:1003D00083BD089580910001853018F410920001CA
:1003E00003C085508093000180910001B3DF83BD7D
:1003F000089589E180930001ADDF83BD089582E314
:1004000080930001A7DF83BD089510921201C59B60
:1004100007C088B38F7D88BB88B3806488BB06C063
:1004200088B38F7B88BB88B3806288BB81E0909162
:100430000F01911180E080930F018091100183BD25
:10044000089549DED0E001C0D0E090DFC82F809150
:100450001201813009F4D9DF8C2F90E087309105AB
:10046000A0F7FC01EA5BFF4F58C080911301811196
:10047000ECCFD13051F39FDFD1E0E7CF8091130172
:100480008111E3CFD23009F3A5DFD2E0DECF809136
:1004900013018111DACFADDFD3E0D7CF8091130103
:1004A0008111D3CFACDFD4E0D0CFD53071F281E071
:1004B0008093130183B58093100188B3806688BB55
:1004C000D5E0C3CF809113018111BFCF13BC10922F
:1004D0000001D6E0BACFA1E21A2EAA1BBB1BFD0178
:1004E0000DC0AA1FBB1FEE1FFF1FA217B307E40713
:1004F000F50720F0A21BB30BE40BF50B661F771F6B
:10050000881F991F1A9469F760957095809590954A
:100510009B01AC01BD01CF010895EE0FFF1F002428
:10052000001C0BBE0790F691E02D0994A29FB0012C
:10053000B39FC001A39F700D811D1124911DB29F17
:0E054000700D811D1124911D0895F894FFCFB8
:0C054E0032C0F9A4B0999282F8809000AD
:00000001FF
