:020000020000FC
:040000000C945B0001
:04003C000C947600AA
:10008C009299B0A4F9C000EC01BB02BB0FEF04BB0A
:10009C0005BB0DE401BF0FE003BF07B7026007BF4C
:1000AC0010E040E036E07894089500E10EBF0FEFC9
:1000BC000DBF0E9449008099FECF36E028E211E086
:1000CC008199FECF0E94AE0012E024E656E02EF09D
:1000DC008199FDCF0E94AE00F1CF13E0E894EBCFF5
:1000EC000F930FB72A9539F5103029F1113031F0F3
:1000FC00123061F01330E9F00C94A10028E23A952B
:10010C000E94A4003030B9F436E015C024E640302B
:10011C0031F00E94A40040E05A9539F00CC0EFEF8A
:10012C00E5BB41E05A9509F006C00FBF68940F91EA
:10013C0018950E94A4000FBF0F9118953F93ECE8FF
:10014C00F0E0E30F08F4F395349135BB3F9108953B
:10015C000E94B300819BFCCF08956F937F938F9384
:10016C0085E374E164E06A95F1F77A95D9F78A959D
:0A017C00C1F78F917F916F910895F4
:00000001FF
