S01800004763634170706C69636174696F6E33372E7372656321
S113000092C00000AEC00000ACC00000AAC0000056
S1130010A8C00000A6C00000A4C00000A2C0000048
S1130020A0C000009EC000009CC000009AC0000058
S113003098C0000096C0000094C0000004C30000F3
S113004090C000008EC000008CC000008AC0000078
S113005088C0000086C0000084C0000082C0000088
S113006080C000007EC000007CC000007AC0000098
S113007078C0000076C0000041C4000072C00000D7
S113008070C000006EC000006CC00000FB041505C9
S11300901E0527052E05350543056205FE046B057F
S11300A0FE04FE04FE0474057D05FE04FE04FE0445
S11300B0FE04FE04FE04FE04FE04FE04FE04FE042C
S11300C0FE04FE04FE04FE049B05FE04FE04FE047E
S11300D0FE04FE04FE048605FE04FE04FE04FE0483
S11300E0FE04FE049205FE04FE04FE04FE04FE0467
S11300F0FE04FE04FE04FE04FE04FE04FE04FE04EC
S1130100FE04FE04FE04FE049B05FE04FE04FE043D
S1130110FE04FE04FE048605FE04FE04FE04FE0442
S1130120FE04FE04920511241FBECFEFD0E1DEBF12
S1130130CDBF11E0A0E0B1E0E4E0F3E100E00BBFEB
S113014002C007900D92A435B107D9F721E0A4E5C8
S1130150B1E001C01D92AE38B207E1F74AD40C9465
S113016080094ECF20912600206420932600209100
S1130170260026FDFCCF8091250008958FEF84BBD7
S113018085BB90EC9ABB90E89BBB9FE092B983B986
S113019080EE87BB8EE388BB8DE481BF93BF87B7B6
S11301A0826087BF83E685BD13BC8FEC8093990082
S11301B01092980081E287B987E886B982E080933B
S11301C09B0088E980939A008EE080939D00789448
S11301D008958091580183361CF0109261010895AE
S11301E0E0915701F0E0EA5BFE4F808183B9809192
S11301F057018F5F80935701843011F41092570197
S113020080916101815080936101809158018F5FD9
S1130210809358010895809158018E391CF41092EE
S113022061010895E0915601F0E0EE5BFE4F80819C
S113023083B9809156018F5F80935601843011F405
S113024010925601809161018F5F809361018091CA
S113025058018150809358010895909159019F5FEE
S113026090935901943010F01092590190915901D2
S1130270933011F51BBA80916901833711F08335EE
S113028019F482E985BB0895843611F0843419F495
S113029081EA85BB0895813611F0813419F488E828
S11302A085BB08958D3611F08D3419F486E885BB2D
S11302B008958FEF85BB0895909169019D3419F0DD
S11302C09D3609F0D4C0611104C080EC8BBB85BBA2
S11302D019C166230CF082C0619520E030E016C09D
S11302E0F901E559FE4F87E66802812D11248595B1
S11302F0859567FD8395482F440F942F990F990F87
S1130300940F691B6083682F2F5F3F4F6111E8CF03
S11303102130310509F580915B0181110DC080EC1C
S11303208BBBE0916B01F0E0E65BFE4F808185BB07
S113033081E080935B0110C0813041F480E88BBB85
S11303408FEF85BB82E080935B0106C080E48BBBAA
S11303508FEB85BB10925B012230310509F0D2C0CE
S113036080915A0181110DC080EC8BBBE0916B012F
S1130370F0E0E65BFE4F808185BB81E080935A010B
S1130380C1C0813069F480E88BBBE0916C01F0E07E
S1130390E65BFE4F808185BB82E080935A01B2C048
S11303A080E48BBB8FEB85BB10925A01ABC0F90183
S11303B0E559FE4F87E66802812D112485958595C0
S11303C067FD8395482F440F942F990F990F940F2D
S11303D0691B6083682F2F5F3F4F02C020E030E02D
S11303E06111E5CF2130310509F580915B0181115F
S11303F00DC080EC8BBBE0916B01F0E0E65BFE4F3F
S1130400808185BB81E080935B0110C0813041F421
S113041080E88BBB8FEF85BB82E080935B0106C0D5
S113042080E48BBB8FEF85BB10925B0122303105DA
S113043009F068C080915A0181110DC080EC8BBB1A
S1130440E0916B01F0E0E65BFE4F808185BB81E0CB
S113045080935A0157C080E88BBBE0916C01F0E0B7
S1130460E65BFE4F808185BB10925A014BC081111F
S11304701AC080915E01813091F480915C018111F8
S113048007C080EC8BBB85BB81E080935C013AC0E4
S113049080E88BBB8FEB85BB10925C0133C080EC92
S11304A08BBB85BB2FC0843609F04CC080915E01A4
S11304B08130E9F480915A01811108C080EC8BBB32
S11304C080E985BB81E080935A011CC0813041F4EE
S11304D080E88BBB80E985BB82E080935A0112C01F
S11304E080E48BBB8FEB85BB10925A010BC08091CB
S11304F05A0181110AC080EC8BBB80E985BB81E085
S113050080935A0180E090E09AC080E88BBB80E938
S113051085BB10925A01F6CFFA01E559FE4F9DECC6
S1130520899F912D1124969596959695392F330F81
S1130530232F220F220F230F821B8083892F4F5FCB
S11305405F4F02C040E050E08111E6CF41305105D9
S113055029F580915E018130C1F480915B018111A4
S11305600DC080EC8BBBE0916B01F0E0E65BFE4FCD
S1130570808185BB81E080935B0110C080E88BBBE8
S11305808FEB85BB10925B0109C080EC8BBBE091C3
S11305906B01F0E0E65BFE4F808185BB4230510584
S11305A009F0B0CF80915E01813039F580915A0114
S11305B081110DC080EC8BBBE0916B01F0E0E65B38
S11305C0FE4F808185BB81E080935A019BCF8130AF
S11305D069F480E88BBBE0916C01F0E0E65BFE4FD0
S11305E0808185BB82E080935A018CCF80E48BBBF1
S11305F08FEB85BB10925A0185CF80915A018111EE
S11306000DC080EC8BBBE0916B01F0E0E65BFE4F2C
S1130610808185BB81E080935A0174CF80E88BBBD5
S1130620E0916C01F0E0E65BFE4F808185BB1092A7
S11306305A0168CFFC01E559FE4F108201968330C0
S11306409105C4F308951F920F920FB60F921124CF
S11306500BB60F922F933F934F935F936F937F93B8
S11306608F939F93AF93BF93EF93FF938091620116
S11306708F5F8093620180916201853081F41092D2
S1130680620180916101181614F4A3DD08C0809101
S11306906101882314F4BFDD02C08FEF83B9609138
S11306A0580180916001D9DD80916501813029F480
S11306B0809163018F5F8093630180916301823332
S11306C039F4109265011092630181E08093640112
S11306D0FF91EF91BF91AF919F918F917F916F9116
S11306E05F914F913F912F910F900BBE0F900FBED2
S11306F00F901F901895AC0120E007C090919B00CB
S113070095FFFCCF30939C002F5FFA01E20FF11D9F
S113071030813111F3CF08952FEF829FC00111244E
S113072064E670E0AED2862F089580E090E01DC0AC
S113073029B330E0082E02C0359527950A94E2F7D4
S113074020FD12C0EFE1FEE43197F1F700C0000094
S113075029B330E0082E02C0359527950A94E2F7B4
S113076020FD02C08F5F089501968630910504F341
S113077080E00895809160018B5F809360018436EE
S113078018F084E68093600180916001C5DF83BD29
S1130790089580916001853018F41092600103C0BF
S11307A085508093600180916001B6DF83BD089518
S11307B089E180936001B0DF83BD089582E3809373
S11307C06001AADF83BD089510926401C59B07C030
S11307D088B38F7D88BB88B3806488BB06C088B328
S11307E08F7B88BB88B3806288BB81E090915E0177
S11307F0911180E080935E0180915F0183BD089533
S11308008091680180FF72C08091680181FF06C0F9
S1130810E8E6F1E080818D7F808368C08091660185
S11308208337E1F0809166018335C1F080916601E0
S11308308436A1F080916601843481F08091660150
S1130840813661F080916601813441F080916601C6
S11308508D3621F0809166018D3429F480916601F2
S11308608093690143C0809166018E3621F08091A6
S113087066018E3441F48091610181113EC081E0B2
S11308808093550133C080915501813059F5809191
S113089066018A3021F0809166018D3081F4E09107
S11308A05401F0E0E657FE4F10821092540110926A
S11308B055018AE891E024D28093610117C08091A8
S11308C05401843010F01092540180915401E82FA7
S11308D0F0E090916601E657FE4F90838F5F80931E
S11308E0540104C08091660180936A01E8E6F1E056
S11308F080818E7F80831092660108951F920F92EB
S11309000FB60F9211240BB60F922F933F934F9370
S11309105F936F937F938F939F93AF93BF93EF9363
S1130920FF9380919B00E6E6F1E0818381818C71E5
S113093031F0E8E6F1E080818260808309C0809133
S11309409C0080936601E8E6F1E080818160808309
S113095057DFFF91EF91BF91AF919F918F917F915D
S11309606F915F914F913F912F910F900BBE0F901C
S11309700FBE0F901F901895CF93DF93C0915D0128
S1130980D0E0F0DBCE57DE4F888380915D018F5F2E
S113099080935D018430D9F408C0FC01EE57FE4F0A
S11309A04081240F311D019604C080E090E020E0D6
S11309B030E0843091058CF3C90199230CF403963B
S11309C0959587959595879583BD10925D0123B57F
S11309D084E6289F90011124A1E8B0E86ED1880F25
S11309E0892F881F990B919580936001DF91CF9196
S11309F00895C4DB03C0D0E001C0D0E08091690158
S1130A00833719F0833509F046C08FDEC82F8091F3
S1130A106401813009F4D8DE8C2F90E08730910591
S1130A2068F7FC01EA5BFF4F3FC1809165018130AB
S1130A3029F3D13019F39EDED1E0E0CF8091650136
S1130A408130E1F2D230D1F2A4DED2E0D7CF80916E
S1130A506501813099F2ACDED3E0D0CF809165019D
S1130A60813061F2ABDED4E0C9CFD53009F4C6CF12
S1130A7081E08093650183B580935F0188B38066CC
S1130A8088BBD5E0BBCF80916501813009F4B6CF36
S1130A9013BCD6E0B3CF843619F0843409F064C0B3
S1130AA080916401813009F48FDEE0916A018E2F18
S1130AB090E0FC01BB97E634F10508F09FCFE35BBF
S1130AC0FF4FF2C080916501813009F497CF52DE67
S1130AD010926A0193CF80916501813009F48ECF21
S1130AE058DE10926A018ACF80916501813009F441
S1130AF085CF5EDE10926A0181CF809165018130DD
S1130B0009F47CCF5BDE10926A0178CF81E0809398
S1130B10650183B580935F0188B3806688BB1092BA
S1130B206A016CCF80916501813009F467CF13BCF1
S1130B3010926A0163CF809160011F928F9380E0CD
S1130B4091E09F938F938EE691E09F938F93FDD0D6
S1130B508EE691E0D0DD10926A010F900F900F9015
S1130B600F900F900F904ACF8D3619F08D3409F005
S1130B704CC080916A01823459F128F48B3259F0C7
S1130B808D32A9F03BCF823619F18237E1F08235FC
S1130B9009F034CF18C08091610181112FCF809169
S1130BA061018F5F8093610110926A0127CF809168
S1130BB06101811123CF8091610181508093610192
S1130BC010926A011BCF1092580110926A0116CF3D
S1130BD080915801282F082E000C330B3F938F93DC
S1130BE080E191E09F938F938EE691E09F938F93A2
S1130BF0ACD08EE691E07FDD10926A010F900F90E9
S1130C000F900F900F900F90F9CE813619F0813428
S1130C1009F0F4CE80916A01823411F08236C1F475
S1130C20809160011F928F9380E091E09F938F9356
S1130C308EE691E09F938F9388D08EE691E05BDD02
S1130C4010926A010F900F900F900F900F900F90D9
S1130C5093DE8FE19EE40197F1F700C000008091DC
S1130C606401813009F4B0DDCC99C7CE81E0809372
S1130C70650183B580935F0188B3806688BBD5E046
S1130C80BDCE97FB072E16F4009406D077FD08D04E
S1130C9023D007FC05D03EF4909581959F4F08958D
S1130CA0709561957F4F0895EE0FFF1F0024001C7F
S1130CB00BBE0790F691E02D0994A29FB001B39F5B
S1130CC0C001A39F700D811D1124911DB29F700D51
S1130CD0811D1124911D0895AA1BBB1B51E107C05E
S1130CE0AA1FBB1FA617B70710F0A61BB70B881FB8
S1130CF0991F5A95A9F780959095BC01CD01089547
S1130D00FC0188279927E89421912032E9F32930BE
S1130D1010F02E30C8F32B3239F02D3231F46894B0
S1130D2003C00BD0820F911D219120532A30C8F3A8
S1130D301EF4909581959F4F08957AE0979F902D8A
S1130D40879F802D910D112408950F931F93CF93A6
S1130D50DF93CDB7DEB72E970FB6F894DEBF0FBE84
S1130D60CDBF0D891E8986E08C831A8309838FEF9A
S1130D709FE79E838D83AE01475E5F4F6F89788DB9
S1130D80CE01019610D0EF81F885E00FF11F10829B
S1130D902E960FB6F894DEBF0FBECDBFDF91CF9174
S1130DA01F910F9108952F923F924F925F926F92ED
S1130DB07F928F929F92AF92BF92CF92DF92EF92E7
S1130DC0FF920F931F93CF93DF93CDB7DEB72B978B
S1130DD00FB6F894DEBF0FBECDBF6C017B018A0154
S1130DE0FC0117821682838181FFBFC1CE01019667
S1130DF03C01F6019381F70193FD859193FF819165
S1130E007F01882309F4ADC1853239F493FD8591BE
S1130E1093FF81917F01853221F4B60190E0D6D110
S1130E20E8CF912C212C312CFFE1F315D8F08B3233
S1130E3079F038F4803279F08332A1F4232D2061E3
S1130E401DC08D3261F0803369F4232D216016C0FA
S1130E50832D8260382EE32DE4603E2E2AC0F32DCC
S1130E60F8601DC037FC2DC020ED280F2A3040F05B
S1130E708E32B9F436FC75C1232D2064322E19C08C
S1130E8036FE06C08AE0989E200D1124922E11C0D1
S1130E90EAE02E9E200D1124222EF32DF0623F2E27
S1130EA008C08C3621F4832D8068382E02C0883621
S1130EB041F4F70193FD859193FF81917F018111A5
S1130EC0B3CF982F9F7D9554933028F40C5F1F4F18
S1130ED09FE399830DC0833631F0833771F08335F6
S1130EE009F055C020C0F801808189830E5F1F4F2F
S1130EF088248394912C530112C02801F2E04F0EF0
S1130F00511CF801A080B18036FE03C0692D70E049
S1130F1002C06FEF7FEFC5014ED14C018201F32D6A
S1130F20FF773F2E15C0280122E0420E511CF80124
S1130F30A080B18036FE03C0692D70E002C06FEF5F
S1130F407FEFC5012DD14C01F32DF0683F2E8201B6
S1130F5033FC19C0822D90E088169906A0F4B601DE
S1130F6080E290E033D12A94F5CFF50137FC8591E6
S1130F7037FE81915F01B60190E028D121102A94B7
S1130F8021E0821A91088114910479F7E1C0843632
S1130F9011F0893639F5F80137FE07C06081718197
S1130FA0828193810C5F1F4F08C060817181072E7D
S1130FB0000C880B990B0E5F1F4FF32DFF763F2E0D
S1130FC097FF09C090958095709561957F4F8F4FDD
S1130FD09F4FF0683F2E2AE030E0A30133D1882EE2
S1130FE0861844C0853731F4232D2F7EB22E2AE093
S1130FF030E025C0932D997FB92E8F36C1F018F4B7
S1131000883579F0AEC0803719F0883721F0A9C04F
S1131010E92FE061BE2EB4FE0DC0FB2DF460BF2E9F
S113102009C034FE0AC0292F2660B22E06C028E06B
S113103030E005C020E130E002C020E132E0F801F8
S1131040B7FE07C060817181828193810C5F1F4F5D
S113105006C06081718180E090E00E5F1F4FA301A4
S1131060F1D0882E8618FB2DFF773F2E36FE0DC05B
S1131070232D2E7FA22E891458F434FE0BC032FC8B
S113108009C0832D8E7EA82E05C0B82CA32C03C0C6
S1131090B82C01C0B92CA4FE0FC0FE01E80DF11D4F
S11310A08081803321F49A2D997EA92E09C0A2FE55
S11310B006C0B394B39404C08A2D867809F0B3941F
S11310C0A3FC10C0A0FE06C0B21480F4280C922C1D
S11310D09B180DC0B21458F4B60180E290E076D0AB
S11310E0B394F8CFB21418F42B1802C0982C212C06
S11310F0A4FE0FC0B60180E390E068D0A2FE16C043
S1131100A1FC03C088E790E002C088E590E0B60146
S11311100CC08A2D867851F0A1FE02C08BE201C07A
S113112080E2A7FC8DE2B60190E050D0891430F43F
S1131130B60180E390E04AD09A94F8CF8A94F30100
S1131140E80DF11D8081B60190E040D08110F6CF0A
S1131150222009F44ECEB60180E290E037D02A94E2
S1131160F7CFF6018681978102C08FEF9FEF2B9610
S11311700FB6F894DEBF0FBECDBFDF91CF911F91A4
S11311800F91FF90EF90DF90CF90BF90AF909F9022
S11311908F907F906F905F904F903F902F90089525
S11311A0FC010590615070400110D8F7809590952E
S11311B08E0F9F1F0895FC01615070400190011033
S11311C0D8F7809590958E0F9F1F08950F931F93C6
S11311D0CF93DF93FB01238121FD03C08FEF9FEFAA
S11311E02CC022FF16C046815781248135814217C5
S11311F0530744F4A081B1819D012F5F3F4F318398
S113120020838C93268137812F5F3F4F378326833A
S113121014C08B01EC01FB010084F185E02D0995DC
S1131220892BE1F6D80116968D919C91179701961A
S113123017969C938E931697CE01DF91CF911F91B1
S11312400F910895FA01AA27283051F1203181F134
S1131250E8946F936E7F6E5F7F4F8F4F9F4FAF4FBA
S1131260B1E03ED0B4E03CD0670F781F891F9A1FCD
S1131270A11D680F791F8A1F911DA11D6A0F711D81
S1131280811D911DA11D20D009F468943F912AE08D
S1131290269F11243019305D3193DEF6CF01089575
S11312A0462F4770405D4193B3E00FD0C9F7F6CFA6
S11312B0462F4F70405D4A3318F0495D31FD40526E
S11312C0419302D0A9F7EACFB4E0A6959795879504
S11312D077956795BA95C9F70097610571050895E3
S11312E09B01AC010A2E069457954795379527958F
S11312F0BA95C9F7620F731F841F951FA01D089527
S1071300F894FFCF8B
S113130444757479203A202564202525200D0A008B
S113131444697374616E636961646F202564207029
S11313246173736F7320646120706F736963616F99
S1131334206465207265666572656E6369612E0D4D
S11313440A0003060C09090C0603C0F9A4B0999217
S107135482F8809007
S9030000FC
