S01800004763634170706C69636174696F6E32372E7372656322
S113000092C00000ADC00000ABC00000A9C0000059
S1130010A7C00000A5C00000A3C00000A1C000004C
S11300209FC000009DC000009BC0000099C000005C
S113003097C0000095C0000093C00000C3C1000039
S11300408FC000008DC000008BC0000089C000007C
S113005087C0000085C0000083C0000081C000008C
S11300607FC000007DC000007BC0000079C000009C
S113007077C0000075C0000099C2000071C0000084
S11300806FC000006DC000006BC0000016032E039B
S11300903703400347034E035C037B0317038403C6
S11300A01703170317038D03960317031703170387
S11300B0170317031703170317031703170317036C
S11300C01703170317031703B403170317031703BF
S11300D01703170317039F031703170317031703C4
S11300E017031703AB0317031703170317031703A8
S11300F0170317031703170317031703170317032C
S11301001703170317031703B4031703170317037E
S11301101703170317039F03170317031703170383
S113012017031703AB0311241FBECFEFD0E1DEBFCB
S1130130CDBF11E0A0E0B1E0E8ECFDE000E00BBFD2
S113014002C007900D92AA31B107D9F721E0AAE1C4
S1130150B1E001C01D92A034B207E1F765D232C606
S11301604FCF8FEF84BB85BB80EC8ABB80E88BBB11
S113017080EE87BB8EE388BB8DE481BF8FE083BFB5
S113018087B7826087BF83E685BD13BC8FEC8093FD
S113019099001092980082E080939B0088E98093F4
S11301A09A008EE080939D007894089590911A01AE
S11301B09F5F90931A01943010F010921A0190915D
S11301C01A019330A1F41BBA80912701833711F0EF
S11301D0833519F482E985BB0895843611F084349B
S11301E019F481EA85BB08958FEF85BB08958111C9
S11301F01AC080911E01813091F480911D018111FA
S113020007C080EC8BBB85BB81E080931D01089502
S113021080E88BBB8FEB85BB10921D01089580ECA9
S11302208BBB85BB0895843609F04AC080911E01BA
S11302308130E9F480911B01811108C080EC8BBBF3
S113024080E985BB81E080931B010895813041F4EE
S113025080E88BBB80E985BB82E080931B01089515
S113026080E48BBB8FEB85BB10921B0108958091BA
S11302701B01811108C080EC8BBB80E985BB81E048
S113028080931B01089580E88BBB80E985BB1092A5
S11302901B010895F901E75DFE4F9DEC899F912DA7
S11302A01124969596959695592F550F452F440FE1
S11302B0440F450F841B8083892F2F5F3F4F02C05B
S11302C020E030E08111E6CF2130310529F580911D
S11302D01E018130C1F480911C0181110DC080EC9C
S11302E08BBBE0912901F0E0E05FFE4F808185BB8C
S11302F081E080931C0110C080E88BBB8FEB85BB31
S113030010921C0109C080EC8BBBE0912901F0E044
S1130310E05FFE4F808185BB22303105D9F58091A5
S11303201E01813039F580911B0181110DC080ECD3
S11303308BBBE0912901F0E0E05FFE4F808185BB3B
S113034081E080931B0126C0813069F480E88BBB77
S1130350E0912A01F0E0E05FFE4F808185BB82E0FE
S113036080931B0117C080E48BBB8FEB85BB10927D
S11303701B0110C080911B0181110FC080EC8BBB4D
S1130380E0912901F0E0E05FFE4F808185BB81E0D0
S113039080931B0180E090E011C080E88BBBE0916A
S11303A02A01F0E0E05FFE4F808185BB10921B01C3
S11303B0F1CFFC01E75DFE4F108201968330910579
S11303C0C4F308951F920F920FB60F9211240BB627
S11303D00F922F933F934F935F936F937F938F93DA
S11303E09F93AF93BF93EF93FF9380912001DEDE41
S11303F080912301813029F4809121018F5F8093C2
S1130400210180912101823339F410922301109249
S1130410210181E080932201FF91EF91BF91AF917F
S11304209F918F917F916F915F914F913F912F9108
S11304300F900BBE0F900FBE0F901F901895AC013C
S113044020E007C090919B0095FFFCCF30939C0067
S11304502F5FFA01E20FF11D30813111F3CF0895BE
S1130460282F30E0AFEFB0E0C3D124E630E040E025
S113047050E093D1822F089580E090E01DC029B30D
S113048030E0082E02C0359527950A94E2F720FD46
S113049012C0EFE1FEE43197F1F700C0000029B388
S11304A030E0082E02C0359527950A94E2F720FD26
S11304B002C08F5F089501968630910504F380E0B1
S11304C00895809120018B5F80932001843618F079
S11304D084E68093200180912001C2DF83BD0895CA
S11304E080912001853018F41092200103C08550BA
S11304F08093200180912001B3DF83BD089589E1B9
S113050080932001ADDF83BD089582E380932001B1
S1130510A7DF83BD089510922201C59B07C088B34D
S11305208F7D88BB88B3806488BB06C088B38F7B0B
S113053088BB88B3806288BB81E090911E019111D1
S113054080E080931E0180911F0183BD08958091F6
S1130550260180FF23C08091260181FF06C0E6E2C8
S1130560F1E080818D7F808319C0809124018337DD
S113057061F080912401833541F080912401843617
S113058021F080912401843429F480912401809302
S1130590270104C08091240180932801E6E2F1E060
S11305A080818E7F80831092240108951F920F9280
S11305B00FB60F9211240BB60F922F933F934F93C4
S11305C05F936F937F938F939F93AF93BF93EF93B7
S11305D0FF9380919B00E4E2F1E0818381818C713F
S11305E031F0E6E2F1E080818260808309C080918D
S11305F09C0080932401E6E2F1E0808181608083A5
S1130600A6DFFF91EF91BF91AF919F918F917F9161
S11306106F915F914F913F912F910F900BBE0F906F
S11306200FBE0F901F9018959CDD01C0D0E0809103
S11306302701833719F0833509F046C01DDFC82F21
S113064080912201813009F466DF8C2F90E087309D
S1130650910568F7FC01EA5BFF4FC1C0809123015B
S1130660813029F3D13019F32CDFD1E0E0CF809130
S113067023018130E1F2D230D1F232DFD2E0D7CFA0
S113068080912301813099F23ADFD3E0D0CF809179
S11306902301813061F239DFD4E0C9CFD53009F4C8
S11306A0C6CF81E08093230183B580931F0188B373
S11306B0806688BBD5E0BBCF80912301813009F4EB
S11306C0B6CF13BCD6E0B3CF843619F0843409F026
S11306D0AECF80912201813009F41DDFE091280121
S11306E08E2F90E0FC01BB97E634F10508F09FCF14
S11306F0E35BFF4F74C080912301813009F497CFED
S1130700E0DE1092280193CF80912301813009F417
S11307108ECFE6DE109228018ACF809123018130AA
S113072009F485CFECDE1092280181CF809123015A
S1130730813009F47CCFE9DE1092280178CF81E082
S11307408093230183B580931F0188B3806688BB9F
S1130750109228016CCF80912301813009F467CF76
S113076013BC1092280163CF809120011F928F93B4
S113077080E091E09F938F938CE291E09F938F931D
S113078046D08CE291E05BDE109228010F900F902E
S11307900F900F900F900F904ACFA1E21A2EAA1B30
S11307A0BB1BFD010DC0AA1FBB1FEE1FFF1FA2171D
S11307B0B307E407F50720F0A21BB30BE40BF50B1A
S11307C0661F771F881F991F1A9469F760957095A3
S11307D0809590959B01AC01BD01CF010895EE0F6A
S11307E0FF1F0024001C0BBE0790F691E02D099416
S11307F0A29FB001B39FC001A39F700D811D11245E
S1130800911DB29F700D811D1124911D08950F93A8
S11308101F93CF93DF93CDB7DEB72E970FB6F8941F
S1130820DEBF0FBECDBF0D891E8986E08C831A837F
S113083009838FEF9FE79E838D83AE01475E5F4FF1
S11308406F89788DCE01019610D0EF81F885E00F85
S1130850F11F10822E960FB6F894DEBF0FBECDBFE7
S1130860DF91CF911F910F9108952F923F924F9254
S11308705F926F927F928F929F92AF92BF92CF922C
S1130880DF92EF92FF920F931F93CF93DF93CDB735
S1130890DEB72B970FB6F894DEBF0FBECDBF6C0149
S11308A07B018A01FC0117821682838181FFBFC10B
S11308B0CE0101963C01F6019381F70193FD8591E8
S11308C093FF81917F01882309F4ADC1853239F406
S11308D093FD859193FF81917F01853221F4B601C7
S11308E090E0D6D1E8CF912C212C312CFFE1F315E7
S11308F0D8F08B3279F038F4803279F08332A1F475
S1130900232D20611DC08D3261F0803369F4232DC5
S1130910216016C0832D8260382EE32DE4603E2EC4
S11309202AC0F32DF8601DC037FC2DC020ED280F20
S11309302A3040F08E32B9F436FC75C1232D206480
S1130940322E19C036FE06C08AE0989E200D11246E
S1130950922E11C0EAE02E9E200D1124222EF32D9A
S1130960F0623F2E08C08C3621F4832D8068382E27
S113097002C0883641F4F70193FD859193FF81917C
S11309807F018111B3CF982F9F7D9554933028F424
S11309900C5F1F4F9FE399830DC0833631F083377B
S11309A071F0833509F055C020C0F8018081898336
S11309B00E5F1F4F88248394912C530112C0280189
S11309C0F2E04F0E511CF801A080B18036FE03C046
S11309D0692D70E002C06FEF7FEFC5014ED14C016D
S11309E08201F32DFF773F2E15C0280122E0420E2D
S11309F0511CF801A080B18036FE03C0692D70E05F
S1130A0002C06FEF7FEFC5012DD14C01F32DF068CB
S1130A103F2E820133FC19C0822D90E0881699067E
S1130A20A0F4B60180E290E033D12A94F5CFF50129
S1130A3037FC859137FE81915F01B60190E028D1A2
S1130A4021102A9421E0821A91088114910479F7E3
S1130A50E1C0843611F0893639F5F80137FE07C054
S1130A6060817181828193810C5F1F4F08C0608116
S1130A707181072E000C880B990B0E5F1F4FF32D0D
S1130A80FF763F2E97FF09C09095809570956195EC
S1130A907F4F8F4F9F4FF0683F2E2AE030E0A30135
S1130AA033D1882E861844C0853731F4232D2F7E08
S1130AB0B22E2AE030E025C0932D997FB92E8F36CF
S1130AC0C1F018F4883579F0AEC0803719F0883752
S1130AD021F0A9C0E92FE061BE2EB4FE0DC0FB2DAC
S1130AE0F460BF2E09C034FE0AC0292F2660B22E3E
S1130AF006C028E030E005C020E130E002C020E17B
S1130B0032E0F801B7FE07C0608171818281938170
S1130B100C5F1F4F06C06081718180E090E00E5F22
S1130B201F4FA301F1D0882E8618FB2DFF773F2E8F
S1130B3036FE0DC0232D2E7FA22E891458F434FEC8
S1130B400BC032FC09C0832D8E7EA82E05C0B82CA4
S1130B50A32C03C0B82C01C0B92CA4FE0FC0FE0105
S1130B60E80DF11D8081803321F49A2D997EA92E00
S1130B7009C0A2FE06C0B394B39404C08A2D86783B
S1130B8009F0B394A3FC10C0A0FE06C0B21480F414
S1130B90280C922C9B180DC0B21458F4B60180E2B4
S1130BA090E076D0B394F8CFB21418F42B1802C0A6
S1130BB0982C212CA4FE0FC0B60180E390E068D0ED
S1130BC0A2FE16C0A1FC03C088E790E002C088E53D
S1130BD090E0B6010CC08A2D867851F0A1FE02C0C7
S1130BE08BE201C080E2A7FC8DE2B60190E050D018
S1130BF0891430F4B60180E390E04AD09A94F8CF97
S1130C008A94F301E80DF11D8081B60190E040D093
S1130C108110F6CF222009F44ECEB60180E290E096
S1130C2037D02A94F7CFF6018681978102C08FEFDF
S1130C309FEF2B960FB6F894DEBF0FBECDBFDF91AA
S1130C40CF911F910F91FF90EF90DF90CF90BF90C5
S1130C50AF909F908F907F906F905F904F903F9058
S1130C602F900895FC010590615070400110D8F751
S1130C70809590958E0F9F1F0895FC0161507040E0
S1130C8001900110D8F7809590958E0F9F1F0895BD
S1130C900F931F93CF93DF93FB01238121FD03C0A7
S1130CA08FEF9FEF2CC022FF16C04681578124810D
S1130CB035814217530744F4A081B1819D012F5F10
S1130CC03F4F318320838C93268137812F5F3F4FA1
S1130CD03783268314C08B01EC01FB010084F1856A
S1130CE0E02D0995892BE1F6D80116968D919C91FA
S1130CF01797019617969C938E931697CE01DF91C2
S1130D00CF911F910F910895FA01AA27283051F12C
S1130D10203181F1E8946F936E7F6E5F7F4F8F4F28
S1130D209F4FAF4FB1E03ED0B4E03CD0670F781F87
S1130D30891F9A1FA11D680F791F8A1F911DA11D6C
S1130D406A0F711D811D911DA11D20D009F46894A5
S1130D503F912AE0269F11243019305D3193DEF64D
S1130D60CF010895462F4770405D4193B3E00FD003
S1130D70C9F7F6CF462F4F70405D4A3318F0495DEE
S1130D8031FD4052419302D0A9F7EACFB4E0A695D1
S1130D909795879577956795BA95C9F700976105F3
S1130DA0710508959B01AC010A2E06945795479549
S1130DB037952795BA95C9F7620F731F841F951F3E
S10B0DC0A01D0895F894FFCF73
S1130DC844757479203A202564202525200D0A00CD
S10D0DD8C0F9A4B0999282F880904B
S9030000FC
