:020000020000FC
:040000000C94460016
:10008C0000E10EBF0FEF0DBF00270ABB0FEF0BBB3C
:10009C0004BB00C00FEF05BB772709B30E3F19F067
:1000AC000D3F71F0FACF71E00FEF61E028E015D051
:1000BC00062705BB42E558D0660F2A95C1F7EACF53
:1000CC0072E0002760E828E008D0062705BB49E26B
:1000DC004BD066952A95C1F7DDCFCD9B01D0089505
:1000EC0095B3CD9BFECF39B33E3F19F03D3FF1F0B8
:1000FC00FACF39B33E3FE9F37130A9F171E095BB0A
:10010C00092F442758E0A92FA69508F043955A9536
:10011C00D9F761E0542F552319F0660F5A95E9F77A
:10012C0028E0241B222309F0C2CFB4CF39B33D3FC2
:10013C00E9F37230C1F072E095BB092F442758E007
:10014C00A92FA69508F443955A95D9F760E8542F32
:10015C00552319F066955A95E9F728E0241B2223BC
:10016C0009F0B2CF97CF08952F933F934F935F939E
:10017C002EEF3FEF542F5A95F1F73A95D9F72A9570
:0C018C00C1F75F914F913F912F910895B2
:00000001FF
