S01800004763634170706C69636174696F6E34312E7372656326
S113000092C00000AEC00000ACC00000AAC0000056
S1130010A8C00000A6C00000A4C00000A2C0000048
S1130020A0C000009EC000009CC00000D8C000001A
S113003098C0000096C0000094C00000D4C3000023
S113004090C000008EC000008CC000008AC0000078
S113005088C0000086C0000084C0000082C0000088
S113006080C000007EC000007CC000007AC0000098
S113007078C0000076C0000046C5000072C00000D1
S113008070C000006EC000006CC000000D062706A2
S113009030063906400647065506740610067D06E6
S11300A010061006100686068F06100610061006A7
S11300B0100610061006100610061006100610068C
S11300C01006100610061006AD06100610061006DF
S11300D010061006100698061006100610061006E4
S11300E010061006A40610061006100610061006C8
S11300F0100610061006100610061006100610064C
S11301001006100610061006AD061006100610069E
S113011010061006100698061006100610061006A3
S113012010061006A40611241FBECFEFD0E1DEBFD7
S1130130CDBF11E0A0E0B1E0E2E9F5E100E00BBFE2
S113014002C007900D92AC36B107D9F721E0ACE6B6
S1130150B1E001C01D92AD3CB207E1F75CD50C944F
S1130160C70A4ECF209126002064209326002091B8
S1130170260026FDFCCF8091250008958FEF84BBD7
S113018085BB90EC9ABB9FEE91BB90E192BB1FBCE8
S113019091EC9EBD92E297BF90E89BBB9FE092B921
S11301A083B980EE87BB8EE388BB8DE481BF93BFA8
S11301B083E685BD13BC8FEC809399001092980060
S11301C081E287B987E886B982E080939B0088E959
S11301D080939A008EE080939D00789408951F92F6
S11301E00F920FB60F9211248F939F9380918001E9
S11301F090918101019690938101809380019F9158
S11302008F910F900FBE0F901F90189580917501DC
S113021083361CF010927E010895E0917401F0E0A1
S1130220E25AFE4F808183B9809174018F5F80937D
S11302307401843011F41092740180917E01815014
S113024080937E01809175018F5F8093750108957D
S1130250809175018E391CF410927E010895E0910D
S11302607301F0E0E65AFE4F808183B980917301F7
S11302708F5F80937301843011F410927301809125
S11302807E018F5F80937E01809175018150809300
S113029075010895909176019F5F90937601943053
S11302A010F01092760190917601933049F51BBAC3
S11302B080918801833711F0833519F482E985BB75
S11302C00895843611F0843419F481EA85BB0895C5
S11302D0813611F0813419F488E885BB08958D3690
S11302E011F08D3419F486E885BB0895863711F032
S11302F0863519F481EC85BB08958FEF85BB08958D
S1130300909188019D3419F09D3609F0D4C0611193
S113031004C080EC8BBB85BB95C166230CF082C006
S1130320619520E030E016C0F901E457FE4F87E6FE
S11303306802812D11248595859567FD8395482F45
S1130340440F942F990F990F940F691B6083682FA2
S11303502F5F3F4F6111E8CF2130310509F58091BE
S1130360780181110DC080EC8BBBE0918C01F0E031
S1130370EE59FE4F808185BB81E08093780110C0E7
S1130380813041F480E88BBB8FEF85BB82E08093A2
S1130390780106C080E48BBB8FEB85BB109278019B
S11303A02230310509F04EC18091770181110DC0D1
S11303B080EC8BBBE0918C01F0E0EE59FE4F808124
S11303C085BB81E0809377013DC1813069F480E889
S11303D08BBBE0918D01F0E0EE59FE4F808185BB2F
S11303E082E0809377012EC180E48BBB8FEB85BBC9
S11303F01092770127C1F901E457FE4F87E668029E
S1130400812D11248595859567FD8395482F440F8B
S1130410942F990F990F940F691B6083682F2F5F96
S11304203F4F02C020E030E06111E5CF21303105BB
S113043009F58091780181110DC080EC8BBBE091AE
S11304408C01F0E0EE59FE4F808185BB81E0809302
S1130450780110C0813041F480E88BBB8FEF85BBFD
S113046082E08093780106C080E48BBB8FEF85BB6C
S1130470109278012230310509F0E4C080917701AF
S113048081110DC080EC8BBBE0918C01F0E0EE5942
S1130490FE4F808185BB81E080937701D3C080E8E3
S11304A08BBBE0918D01F0E0EE59FE4F808185BB5E
S11304B010927701C7C0963719F0963509F0A7C096
S11304C04115510519F480EC8BBB85BBE0E0F0E0ED
S11304D028C09A01ADECBCEC37D5969587959695D6
S11304E08795969587959C01220F331F880F991F36
S11304F0880F991F880F991F820F931F9A01281B39
S1130500390BDF01A457BE4F2C939A01ADECBCEC20
S11305101BD5AC01569547955695479556954795E5
S1130520319641155105A9F6E130F10529F580917F
S11305307B018130C1F48091780181110DC080EC80
S11305408BBBA0918C01B0E0AE59BE4F8C9185BBA2
S113055081E08093780110C080E88BBB8FEB85BB72
S11305601092780109C080EC8BBBA0918C01B0E0A3
S1130570AE59BE4F8C9185BB329709F063C0809110
S11305807B01813039F58091770181110DC080ECB8
S11305908BBBE0918C01F0E0EE59FE4F808185BB6E
S11305A081E0809377014EC0813069F480E88BBB91
S11305B0E0918D01F0E0EE59FE4F808185BB82E031
S11305C0809377013FC080E48BBB8FEB85BB109297
S11305D0770138C08091770181110DC080EC8BBB0D
S11305E0E0918C01F0E0EE59FE4F808185BB81E003
S11305F08093770127C080E88BBBE0918D01F0E008
S1130600EE59FE4F808185BB109277011BC081118A
S11306101CC080917B01813091F48091790181111A
S113062007C080EC8BBB85BB81E0809379010AC055
S113063080E88BBB8FEB85BB1092790103C080EC03
S11306408BBB85BB80E090E0CAC0843609F04AC009
S113065080917B018130E9F480917701811108C098
S113066080EC8BBB80E985BB81E080937701EACF86
S1130670813041F480E88BBB80E985BB82E08093C4
S11306807701E0CF80E48BBB8FEB85BB10927701C1
S1130690D9CF80917701811108C080EC8BBB80E9B0
S11306A085BB81E080937701CDCF80E88BBB80E967
S11306B085BB10927701C6CFF901E457FE4F9DEC3C
S11306C0899F912D1124969596959695592F550F9E
S11306D0452F440F440F450F841B8083892F2F5FC0
S11306E03F4F02C020E030E08111E6CF21303105D8
S11306F029F580917B018130C1F4809178018111C9
S11307000DC080EC8BBBE0918C01F0E0EE59FE4F04
S1130710808185BB81E08093780110C080E88BBB29
S11307208FEB85BB1092780109C080EC8BBBE09104
S11307308C01F0E0EE59FE4F808185BB22303105FB
S113074009F080CF80917B01813039F58091770168
S113075081110DC080EC8BBBE0918C01F0E0EE596F
S1130760FE4F808185BB81E0809377016BCF813020
S113077069F480E88BBBE0918D01F0E0EE59FE4F07
S1130780808185BB82E0809377015CCF80E48BBB62
S11307908FEB85BB1092770155CF80917701811142
S11307A00DC080EC8BBBE0918C01F0E0EE59FE4F64
S11307B0808185BB81E08093770144CF80E88BBB47
S11307C0E0918D01F0E0EE59FE4F808185BB1092DF
S11307D0770138CFFC01E457FE4F10820196833035
S11307E09105C4F308951F920F920FB60F9211242E
S11307F00BB60F922F933F934F935F936F937F9317
S11308008F939F93AF93BF93EF93FF9380917F0157
S11308108F5F80937F0180917F01853081F41092F6
S11308207F0180917E01181614F4F0DC08C08091D9
S11308307E01882314F40CDD02C08FEF83B940914C
S11308406D0150916E016091750180917D0122DDF1
S113085080918401813029F4809182018F5F80939B
S1130860820180918201823339F4109284011092C2
S1130870820181E08093830180918801863711F0A1
S1130880863519F580918A0190918B010196909398
S11308908B0180938A0180918A0190918B01883C1D
S11308A0910598F08091800190918101909370015D
S11308B080936F01109281011092800110928B013C
S11308C010928A0181E080936C01FF91EF91BF91B6
S11308D0AF919F918F917F916F915F914F913F91D4
S11308E02F910F900BBE0F900FBE0F901F90189575
S11308F0AC0120E007C090919B0095FFFCCF3093A2
S11309009C002F5FFA01E20FF11D30813111F3CF0A
S113091008952FEF829FC001112464E670E0F8D29D
S1130920862F089580E090E01DC029B330E0082EA2
S113093002C0359527950A94E2F720FD12C0EFE135
S1130940FEE43197F1F700C0000029B330E0082E2F
S113095002C0359527950A94E2F720FD02C08F5F07
S1130960089501968630910504F380E008958091FE
S11309707D018B5F80937D01843618F084E680933B
S11309807D0180917D01C5DF83BD089580917D0146
S1130990853018F410927D0103C0855080937D0149
S11309A080917D01B6DF83BD089589E180937D0147
S11309B0B0DF83BD089582E380937D01AADF83BD08
S11309C0089510928301C59B07C088B38F7D88BBAF
S11309D088B3806488BB06C088B38F7B88BB88B328
S11309E0806288BB81E090917B01911180E08093CB
S11309F07B0180917C0183BD08958091870180FFF4
S1130A007AC08091870181FF06C0E7E8F1E0808128
S1130A108D7F808370C080918501833721F180911F
S1130A208501833501F1809185018436E1F080915F
S1130A3085018434C1F0809185018136A1F08091D3
S1130A408501813481F0809185018D3661F080913A
S1130A5085018D3441F080918501863721F08091A4
S1130A608501863529F4809185018093880143C0EE
S1130A70809185018E3621F0809185018E3441F478
S1130A8080917E0181113EC081E08093720133C068
S1130A9080917201813059F5809185018A3021F06D
S1130AA0809185018D3081F4E0917101F0E0E7538C
S1130AB0FE4F1082109271011092720189EC91E044
S1130AC066D280937E0117C080917101843010F04A
S1130AD01092710180917101E82FF0E090918501ED
S1130AE0E753FE4F90838F5F8093710104C0809120
S1130AF0850180938901E7E8F1E080818E7F80831E
S1130B001092850108951F920F920FB60F9211242F
S1130B100BB60F922F933F934F935F936F937F93F3
S1130B208F939F93AF93BF93EF93FF9380919B0019
S1130B30E5E8F1E0818381818C7131F0E7E8F1E04F
S1130B4080818260808309C080919C0080938501AC
S1130B50E7E8F1E08081816080834FDFFF91EF91CE
S1130B60BF91AF919F918F917F916F915F914F91C1
S1130B703F912F910F900BBE0F900FBE0F901F90BF
S1130B8018959695879590936E0180936D011092B8
S1130B906C011092700110926F010895CF93DF934E
S1130BA0C0917A01D0E0DEDACF53DE4F88838091A2
S1130BB07A018F5F80937A018430D9F408C0FC01F4
S1130BC0EF53FE4F4081240F311D019604C080E095
S1130BD090E020E030E0843091058CF3C901992342
S1130BE00CF40396959587959595879583BD1092FA
S1130BF07A0123B584E6289F90011124A1E8B0E886
S1130C00A3D1880F892F881F990B919580937D011B
S1130C10DF91CF910895B2DA03C0D0E001C0D0E0F3
S1130C2080918801833719F0833509F046C07ADE54
S1130C30C82F80918301813009F4C3DE8C2F90E0AA
S1130C408730910568F7FC01EA5BFF4F74C180911E
S1130C508401813029F3D13019F389DED1E0E0CF6A
S1130C60809184018130E1F2D230D1F28FDED2E082
S1130C70D7CF80918401813099F297DED3E0D0CF31
S1130C8080918401813061F296DED4E0C9CFD53001
S1130C9009F4C6CF81E08093840183B580937C01FD
S1130CA088B3806688BBD5E0BBCF80918401813056
S1130CB009F4B6CF13BCD6E0B3CF843619F084342C
S1130CC009F064C080918301813009F47ADEE091F7
S1130CD089018E2F90E0FC01BB97E634F10508F002
S1130CE09FCFE35BFF4F27C180918401813009F4DA
S1130CF097CF3DDE1092890193CF8091840181309A
S1130D0009F48ECF43DE109289018ACF8091840149
S1130D10813009F485CF49DE1092890181CF809119
S1130D208401813009F47CCF46DE1092890178CFAA
S1130D3081E08093840183B580937C0188B38066CD
S1130D4088BB109289016CCF80918401813009F4B1
S1130D5067CF13BC1092890163CF80917D011F92EC
S1130D608F9380E091E09F938F938FE891E09F931E
S1130D708F9332D18FE891E0BBDD109289010F90FF
S1130D800F900F900F900F900F904ACF8D3619F05F
S1130D908D3409F04CC080918901823459F128F4D2
S1130DA08B3259F08D32A9F03BCF823619F182375C
S1130DB0E1F0823509F034CF18C080917E018111B1
S1130DC02FCF80917E018F5F80937E0110928901E5
S1130DD027CF80917E01811123CF80917E018150A4
S1130DE080937E01109289011BCF1092750110929D
S1130DF0890116CF80917501282F082E000C330B22
S1130E003F938F9380E191E09F938F938FE891E0DC
S1130E109F938F93E1D08FE891E06ADD109289016E
S1130E200F900F900F900F900F900F90F9CE863780
S1130E3011F0863589F580916C01813029F4809117
S1130E406F01909170019DDE80918901823419F0C7
S1130E50823609F0E5CE80916D0190916E0120916A
S1130E607D011F922F939F938F9382E491E09F9330
S1130E708F938FE891E09F938F93AED08FE891E0AA
S1130E8037DD109289018DB79EB708960FB6F89496
S1130E909EBF0FBE8DBFC4CE813619F0813409F0D8
S1130EA0BFCE80918901823411F08236C1F48091E1
S1130EB07D011F928F9380E091E09F938F938FE841
S1130EC091E09F938F9388D08FE891E011DD109289
S1130ED089010F900F900F900F900F900F905EDE8E
S1130EE08FE19EE40197F1F700C000008091830137
S1130EF0813009F466DDCC9992CE81E0809384013F
S1130F0083B580937C0188B3806688BBD5E088CEA6
S1130F1097FB072E16F4009406D077FD08D023D053
S1130F2007FC05D03EF4909581959F4F08957095E8
S1130F3061957F4F0895EE0FFF1F0024001C0BBE28
S1130F400790F691E02D0994A29FB001B39FC001D0
S1130F50A39F700D811D1124911DB29F700D811DE1
S1130F601124911D0895AA1BBB1B51E107C0AA1FA0
S1130F70BB1FA617B70710F0A61BB70B881F991F36
S1130F805A95A9F780959095BC01CD010895FC016F
S1130F9088279927E89421912032E9F3293010F029
S1130FA02E30C8F32B3239F02D3231F4689403C05B
S1130FB00BD0820F911D219120532A30C8F31EF4C7
S1130FC0909581959F4F08957AE0979F902D879FE4
S1130FD0802D910D112408950F931F93CF93DF93C8
S1130FE0CDB7DEB72E970FB6F894DEBF0FBECDBFD8
S1130FF00D891E8986E08C831A8309838FEF9FE70E
S11310009E838D83AE01475E5F4F6F89788DCE01DD
S1131010019610D0EF81F885E00FF11F10822E9613
S11310200FB6F894DEBF0FBECDBFDF91CF911F91F5
S11310300F9108952F923F924F925F926F927F92F9
S11310408F929F92AF92BF92CF92DF92EF92FF92D4
S11310500F931F93CF93DF93CDB7DEB72B970FB6C4
S1131060F894DEBF0FBECDBF6C017B018A01FC0189
S113107017821682838181FFBFC1CE0101963C0194
S1131080F6019381F70193FD859193FF81917F018F
S1131090882309F4ADC1853239F493FD859193FF1A
S11310A081917F01853221F4B60190E0D6D1E8CF59
S11310B0912C212C312CFFE1F315D8F08B3279F0EF
S11310C038F4803279F08332A1F4232D20611DC0DD
S11310D08D3261F0803369F4232D216016C0832D95
S11310E08260382EE32DE4603E2E2AC0F32DF86092
S11310F01DC037FC2DC020ED280F2A3040F08E3261
S1131100B9F436FC75C1232D2064322E19C036FE85
S113111006C08AE0989E200D1124922E11C0EAE0A8
S11311202E9E200D1124222EF32DF0623F2E08C096
S11311308C3621F4832D8068382E02C0883641F421
S1131140F70193FD859193FF81917F018111B3CFC5
S1131150982F9F7D9554933028F40C5F1F4F9FE385
S113116099830DC0833631F0833771F0833509F0EC
S113117055C020C0F801808189830E5F1F4F8824E9
S11311808394912C530112C02801F2E04F0E511C9C
S1131190F801A080B18036FE03C0692D70E002C062
S11311A06FEF7FEFC5014ED14C018201F32DFF7724
S11311B03F2E15C0280122E0420E511CF801A080E8
S11311C0B18036FE03C0692D70E002C06FEF7FEF7F
S11311D0C5012DD14C01F32DF0683F2E820133FC63
S11311E019C0822D90E088169906A0F4B60180E219
S11311F090E033D12A94F5CFF50137FC859137FE81
S113120081915F01B60190E028D121102A9421E058
S1131210821A91088114910479F7E1C0843611F09F
S1131220893639F5F80137FE07C060817181828102
S113123093810C5F1F4F08C060817181072E000CE1
S1131240880B990B0E5F1F4FF32DFF763F2E97FFF0
S113125009C090958095709561957F4F8F4F9F4FF2
S1131260F0683F2E2AE030E0A30133D1882E86189F
S113127044C0853731F4232D2F7EB22E2AE030E08E
S113128025C0932D997FB92E8F36C1F018F4883577
S113129079F0AEC0803719F0883721F0A9C0E92F62
S11312A0E061BE2EB4FE0DC0FB2DF460BF2E09C05C
S11312B034FE0AC0292F2660B22E06C028E030E092
S11312C005C020E130E002C020E132E0F801B7FEC1
S11312D007C060817181828193810C5F1F4F06C0BA
S11312E06081718180E090E00E5F1F4FA301F1D017
S11312F0882E8618FB2DFF773F2E36FE0DC0232D3A
S11313002E7FA22E891458F434FE0BC032FC09C07F
S1131310832D8E7EA82E05C0B82CA32C03C0B82C18
S113132001C0B92CA4FE0FC0FE01E80DF11D80819F
S1131330803321F49A2D997EA92E09C0A2FE06C0FD
S1131340B394B39404C08A2D867809F0B394A3FCB3
S113135010C0A0FE06C0B21480F4280C922C9B1876
S11313600DC0B21458F4B60180E290E076D0B39484
S1131370F8CFB21418F42B1802C0982C212CA4FE18
S11313800FC0B60180E390E068D0A2FE16C0A1FCB5
S113139003C088E790E002C088E590E0B6010CC085
S11313A08A2D867851F0A1FE02C08BE201C080E252
S11313B0A7FC8DE2B60190E050D0891430F4B60158
S11313C080E390E04AD09A94F8CF8A94F301E80D30
S11313D0F11D8081B60190E040D08110F6CF22202B
S11313E009F44ECEB60180E290E037D02A94F7CFCC
S11313F0F6018681978102C08FEF9FEF2B960FB67F
S1131400F894DEBF0FBECDBFDF91CF911F910F9136
S1131410FF90EF90DF90CF90BF90AF909F908F9010
S11314207F906F905F904F903F902F900895FC01B4
S11314300590615070400110D8F7809590958E0FFB
S11314409F1F0895FC016150704001900110D8F76E
S1131450809590958E0F9F1F08950F931F93CF93A0
S1131460DF93FB01238121FD03C08FEF9FEF2CC08D
S113147022FF16C0468157812481358142175307C4
S113148044F4A081B1819D012F5F3F4F31832083BC
S11314908C93268137812F5F3F4F3783268314C077
S11314A08B01EC01FB010084F185E02D0995892B6A
S11314B0E1F6D80116968D919C911797019617968F
S11314C09C938E931697CE01DF91CF911F910F912C
S11314D00895FA01AA27283051F1203181F1E894C6
S11314E06F936E7F6E5F7F4F8F4F9F4FAF4FB1E013
S11314F03ED0B4E03CD0670F781F891F9A1FA11D0E
S1131500680F791F8A1F911DA11D6A0F711D811D0E
S1131510911DA11D20D009F468943F912AE0269FD3
S113152011243019305D3193DEF6CF010895462F32
S11315304770405D4193B3E00FD0C9F7F6CF462F13
S11315404F70405D4A3318F0495D31FD405241937C
S113155002D0A9F7EACFB4E0A69597958795779539
S11315606795BA95C9F700976105710508959B01C0
S1131570AC010A2E06945795479537952795BA9549
S1131580C9F7620F731F841F951FA01D0895F89457
S1051590FFCF87
S113159244757479203A202564202525200D0A00FB
S11315A244697374616E636961646F202564207099
S11315B26173736F7320646120706F736963616F09
S11315C2206465207265666572656E6369612E0DBD
S11315D20A005250533A2025640A20447574793A19
S11315E2202564202525200D0A0003060C09090C78
S10F15F20603C0F9A4B0999282F880901E
S9030000FC
